{
  "_format": "hh-sol-artifact-1",
  "contractName": "Donutor",
  "sourceName": "contracts/Donutor.sol",
  "abi": [
    {
      "inputs": [],
      "stateMutability": "nonpayable",
      "type": "constructor"
    },
    {
      "inputs": [
        {
          "internalType": "address",
          "name": "",
          "type": "address"
        },
        {
          "internalType": "uint256",
          "name": "",
          "type": "uint256"
        }
      ],
      "name": "comments",
      "outputs": [
        {
          "internalType": "address",
          "name": "from",
          "type": "address"
        },
        {
          "internalType": "string",
          "name": "name",
          "type": "string"
        },
        {
          "internalType": "string",
          "name": "text",
          "type": "string"
        },
        {
          "internalType": "uint256",
          "name": "at",
          "type": "uint256"
        }
      ],
      "stateMutability": "view",
      "type": "function"
    },
    {
      "inputs": [
        {
          "internalType": "address payable",
          "name": "_to",
          "type": "address"
        },
        {
          "internalType": "string",
          "name": "_name",
          "type": "string"
        },
        {
          "internalType": "string",
          "name": "_text",
          "type": "string"
        }
      ],
      "name": "donate",
      "outputs": [],
      "stateMutability": "payable",
      "type": "function"
    },
    {
      "inputs": [
        {
          "internalType": "address",
          "name": "_to",
          "type": "address"
        }
      ],
      "name": "getComments",
      "outputs": [
        {
          "components": [
            {
              "internalType": "address",
              "name": "from",
              "type": "address"
            },
            {
              "internalType": "string",
              "name": "name",
              "type": "string"
            },
            {
              "internalType": "string",
              "name": "text",
              "type": "string"
            },
            {
              "internalType": "uint256",
              "name": "at",
              "type": "uint256"
            }
          ],
          "internalType": "struct Donutor.Comment[]",
          "name": "",
          "type": "tuple[]"
        }
      ],
      "stateMutability": "view",
      "type": "function"
    }
  ],
  "bytecode": "0x608060405234801561001057600080fd5b50336000806101000a81548173ffffffffffffffffffffffffffffffffffffffff021916908373ffffffffffffffffffffffffffffffffffffffff160217905550610ee4806100606000396000f3fe6080604052600436106100345760003560e01c80630c4174b7146100395780631280db731461007957806317fe375f14610095575b600080fd5b34801561004557600080fd5b50610060600480360381019061005b91906108a4565b6100d2565b6040516100709493929190610aa4565b60405180910390f35b610093600480360381019061008e9190610825565b61024f565b005b3480156100a157600080fd5b506100bc60048036038101906100b791906107fc565b610490565b6040516100c99190610af7565b60405180910390f35b600160205281600052604060002081815481106100ee57600080fd5b9060005260206000209060040201600091509150508060000160009054906101000a900473ffffffffffffffffffffffffffffffffffffffff169080600101805461013890610d10565b80601f016020809104026020016040519081016040528092919081815260200182805461016490610d10565b80156101b15780601f10610186576101008083540402835291602001916101b1565b820191906000526020600020905b81548152906001019060200180831161019457829003601f168201915b5050505050908060020180546101c690610d10565b80601f01602080910402602001604051908101604052809291908181526020018280546101f290610d10565b801561023f5780601f106102145761010080835404028352916020019161023f565b820191906000526020600020905b81548152906001019060200180831161022257829003601f168201915b5050505050908060030154905084565b6000341015610293576040517f08c379a000000000000000000000000000000000000000000000000000000000815260040161028a90610b19565b60405180910390fd5b60006014346102a29190610bf5565b90508373ffffffffffffffffffffffffffffffffffffffff166108fc6013836102cb9190610c26565b9081150290604051600060405180830381858888f193505050501580156102f6573d6000803e3d6000fd5b5060008054906101000a900473ffffffffffffffffffffffffffffffffffffffff1673ffffffffffffffffffffffffffffffffffffffff166108fc829081150290604051600060405180830381858888f1935050505015801561035d573d6000803e3d6000fd5b50600160008573ffffffffffffffffffffffffffffffffffffffff1673ffffffffffffffffffffffffffffffffffffffff16815260200190815260200160002060405180608001604052803373ffffffffffffffffffffffffffffffffffffffff16815260200185815260200184815260200142815250908060018154018082558091505060019003906000526020600020906004020160009091909190915060008201518160000160006101000a81548173ffffffffffffffffffffffffffffffffffffffff021916908373ffffffffffffffffffffffffffffffffffffffff16021790555060208201518160010190805190602001906104609291906106b2565b50604082015181600201908051906020019061047d9291906106b2565b5060608201518160030155505050505050565b6060600160008373ffffffffffffffffffffffffffffffffffffffff1673ffffffffffffffffffffffffffffffffffffffff168152602001908152602001600020805480602002602001604051908101604052809291908181526020016000905b828210156106a757838290600052602060002090600402016040518060800160405290816000820160009054906101000a900473ffffffffffffffffffffffffffffffffffffffff1673ffffffffffffffffffffffffffffffffffffffff1673ffffffffffffffffffffffffffffffffffffffff16815260200160018201805461057a90610d10565b80601f01602080910402602001604051908101604052809291908181526020018280546105a690610d10565b80156105f35780601f106105c8576101008083540402835291602001916105f3565b820191906000526020600020905b8154815290600101906020018083116105d657829003601f168201915b5050505050815260200160028201805461060c90610d10565b80601f016020809104026020016040519081016040528092919081815260200182805461063890610d10565b80156106855780601f1061065a57610100808354040283529160200191610685565b820191906000526020600020905b81548152906001019060200180831161066857829003601f168201915b50505050508152602001600382015481525050815260200190600101906104f1565b505050509050919050565b8280546106be90610d10565b90600052602060002090601f0160209004810192826106e05760008555610727565b82601f106106f957805160ff1916838001178555610727565b82800160010185558215610727579182015b8281111561072657825182559160200191906001019061070b565b5b5090506107349190610738565b5090565b5b80821115610751576000816000905550600101610739565b5090565b600061076861076384610b5e565b610b39565b90508281526020810184848401111561078057600080fd5b61078b848285610cce565b509392505050565b6000813590506107a281610e69565b92915050565b6000813590506107b781610e80565b92915050565b600082601f8301126107ce57600080fd5b81356107de848260208601610755565b91505092915050565b6000813590506107f681610e97565b92915050565b60006020828403121561080e57600080fd5b600061081c84828501610793565b91505092915050565b60008060006060848603121561083a57600080fd5b6000610848868287016107a8565b935050602084013567ffffffffffffffff81111561086557600080fd5b610871868287016107bd565b925050604084013567ffffffffffffffff81111561088e57600080fd5b61089a868287016107bd565b9150509250925092565b600080604083850312156108b757600080fd5b60006108c585828601610793565b92505060206108d6858286016107e7565b9150509250929050565b60006108ec8383610a1c565b905092915050565b6108fd81610c80565b82525050565b61090c81610c80565b82525050565b600061091d82610b9f565b6109278185610bc2565b93508360208202850161093985610b8f565b8060005b85811015610975578484038952815161095685826108e0565b945061096183610bb5565b925060208a0199505060018101905061093d565b50829750879550505050505092915050565b600061099282610baa565b61099c8185610bd3565b93506109ac818560208601610cdd565b6109b581610e2f565b840191505092915050565b60006109cb82610baa565b6109d58185610be4565b93506109e5818560208601610cdd565b6109ee81610e2f565b840191505092915050565b6000610a06601183610be4565b9150610a1182610e40565b602082019050919050565b6000608083016000830151610a3460008601826108f4565b5060208301518482036020860152610a4c8282610987565b91505060408301518482036040860152610a668282610987565b9150506060830151610a7b6060860182610a86565b508091505092915050565b610a8f81610cc4565b82525050565b610a9e81610cc4565b82525050565b6000608082019050610ab96000830187610903565b8181036020830152610acb81866109c0565b90508181036040830152610adf81856109c0565b9050610aee6060830184610a95565b95945050505050565b60006020820190508181036000830152610b118184610912565b905092915050565b60006020820190508181036000830152610b32816109f9565b9050919050565b6000610b43610b54565b9050610b4f8282610d42565b919050565b6000604051905090565b600067ffffffffffffffff821115610b7957610b78610e00565b5b610b8282610e2f565b9050602081019050919050565b6000819050602082019050919050565b600081519050919050565b600081519050919050565b6000602082019050919050565b600082825260208201905092915050565b600082825260208201905092915050565b600082825260208201905092915050565b6000610c0082610cc4565b9150610c0b83610cc4565b925082610c1b57610c1a610da2565b5b828204905092915050565b6000610c3182610cc4565b9150610c3c83610cc4565b9250817fffffffffffffffffffffffffffffffffffffffffffffffffffffffffffffffff0483118215151615610c7557610c74610d73565b5b828202905092915050565b6000610c8b82610ca4565b9050919050565b6000610c9d82610ca4565b9050919050565b600073ffffffffffffffffffffffffffffffffffffffff82169050919050565b6000819050919050565b82818337600083830152505050565b60005b83811015610cfb578082015181840152602081019050610ce0565b83811115610d0a576000848401525b50505050565b60006002820490506001821680610d2857607f821691505b60208210811415610d3c57610d3b610dd1565b5b50919050565b610d4b82610e2f565b810181811067ffffffffffffffff82111715610d6a57610d69610e00565b5b80604052505050565b7f4e487b7100000000000000000000000000000000000000000000000000000000600052601160045260246000fd5b7f4e487b7100000000000000000000000000000000000000000000000000000000600052601260045260246000fd5b7f4e487b7100000000000000000000000000000000000000000000000000000000600052602260045260246000fd5b7f4e487b7100000000000000000000000000000000000000000000000000000000600052604160045260246000fd5b6000601f19601f8301169050919050565b7f4e6f7420656e6f75676820746f6b656e73000000000000000000000000000000600082015250565b610e7281610c80565b8114610e7d57600080fd5b50565b610e8981610c92565b8114610e9457600080fd5b50565b610ea081610cc4565b8114610eab57600080fd5b5056fea26469706673582212205033a7a354a66cee26ede1007c8c1b68cb164324f82af1e38e01ab0c618ae7ee64736f6c63430008040033",
  "linkReferences": {},
  "deployedLinkReferences": {}
}